:020000040800F2
:1000000068330020690200085D0C0008FB08000846
:10001000590C000823060008F7140008000000002F
:10002000000000000000000000000000D1010008F6
:1000300027060008000000001502000861110008F2
:10004000830200088302000883020008830200087C
:10005000830200088302000883020008830200086C
:10006000830200088302000883020008830200085C
:10007000830200088302000883020008830200084C
:10008000830200088302000883020008830200083C
:100090008302000883020008830200082906000882
:1000A000830200088302000883020008830200081C
:1000B000830200088302000883020008830200080C
:1000C00083020008830200088302000883020008FC
:1000D00083020008F511000883020008830200086B
:1000E00083020008830200088302000800F002F87F
:1000F00000F05FF80AA090E8000C82448344AAF163
:100100000107DA4501D100F054F8AFF2090EBAE860
:100110000F0013F0010F18BFFB1A43F0010318473B
:1001200024280000442800000A444FF0000C10F876
:10013000013B13F0070408BF10F8014B1D1108BF65
:1001400010F8015B641E05D010F8016B641E01F805
:10015000016BF9D113F0080F1EBF10F8014BAD1C55
:100160000C1B09D16D1E58BF01F801CBFAD505E073
:1001700014F8016B01F8016B6D1EF9D59142D6D3CD
:10018000704700000023002400250026103A28BFF5
:1001900078C1FBD8520728BF30C148BF0B607047F9
:1001A000642900F0C980002070471FB51FBD10B53D
:1001B00010BD00F0FCF91146FFF7F7FF01F0BCF9A4
:1001C00000F01AFA03B4FFF7F2FF03BC00F022FAC2
:1001D000224B19680868B0E8F00F80F30988BFF374
:1001E0006F8F4FF0000080F311884EF00D0E7047B6
:1001F0000000000006480068006880F3088862B6C6
:1002000061B6BFF34F8FBFF36F8F00DF00BF00BF3A
:1002100008ED00E0EFF30980BFF36F8F0F4B1A6812
:1002200020E9F00F106008B54FF0BF0080F311888F
:10023000BFF34F8FBFF36F8F01F054FD4FF00000FD
:1002400080F31188BDE8084019680868B0E8F00F2D
:1002500080F30988BFF36F8F704700BF68030020E9
:10026000EFF30580704700000948804709480047C0
:10027000FEE7FEE7FEE7FEE7FEE7FEE7FEE7FEE756
:10028000FEE7FEE704480549054A064B70470000B3
:1002900095110008ED000008682D0020683300204B
:1002A000682F0020682F00200FB41CB5074B06AA4A
:1002B0007B4469460090059800F061F9002069468A
:1002C00000F070F91CBC5DF814FB0000F1020000A6
:1002D0002DE9F0410E460446002020622046E168E8
:1002E000884730B3252805D0D4E901219047206AFA
:1002F000401CF2E7E168204600278847050018D037
:10030000A5F14100192802D820354FF40067324684
:10031000294620462760FFF743FF40B1012804D05B
:10032000F61D26F007060836D8E7361DD6E728461C
:10033000DAE7206ABDE8F0812DE9F04106460024A5
:1003400010687529314616A510D0AFF3008000283B
:1003500002DA404213A507E031688A0701D512A5E9
:1003600002E0490704D511A5012401E0AFF30080A4
:1003700000210A2206F1240709E0B0FBF2FCB0FBE1
:10038000F2F302FB1C00303078541846491C002858
:10039000F3D123462A463046BDE8F04100F091B83B
:1003A000000000002D0000002B00000020000000D5
:1003B00010B5431C02E010F8011B71B18107FAD19E
:1003C0004FF0013202C88C1A8C4314EAC211F9D0E2
:1003D000C01A0A0603D0C01E10BDC01A10BD0A0400
:1003E00001D0801E10BD0902FCD0401E10BD4FF090
:1003F000000200B5134694469646203922BFA0E875
:100400000C50A0E80C50B1F12001BFF4F7AF090780
:1004100028BFA0E80C5048BF0CC05DF804EB890071
:1004200028BF40F8042B08BF704748BF20F8022BB4
:1004300011F0804F18BF00F8012B70474FF0013CBE
:1004400050F8042B51F8043B9A4221D1A2EB0C0343
:10045000934313EACC1317D150F8042B51F8043B03
:100460009A4215D1A2EB0C03934313EACC130BD1A0
:1004700050F8042B51F8043B9A4209D1A2EB0C032B
:10048000934313EACC13DBD04FF00000704700BF5A
:10049000D01A01BAB1FA81F101F0180122FA01F083
:1004A000CB40C1F12001DBB2C0B2C01A2CFA01F37B
:1004B000D11A914311EAC311E6D1704770477047D2
:1004C00070472DE9F0470D4699469246044600F1E3
:1004D00024080168880604D5E06921F01001216034
:1004E00000E00120A84201DD471B00E00027A169D0
:1004F0007A1902EB0900081AA0612078C00602D41C
:100500002046AFF30080002608E0D4E901211AF864
:1005100006009047206A401C761C20624E45F4DBA2
:100520002078C0060AD52046AFF3008006E0D4E963
:10053000012130209047206A401C2062381EA7F11C
:100540000107F4DC07E0D4E9012118F80500904721
:10055000206A401C2062281EA5F10105F3DC20461C
:10056000AFF300802078000602D50220BDE8F087B6
:100570000120FBE701694A1C02610878704700B559
:100580008FB0CDE901310021059105497944CDE9CC
:10059000031011466846FFF79BFE0FB000BD000038
:1005A000E5FFFFFF0A6802F8010B0A607047754615
:1005B00000F02CF8AE4605006946534620F00700CF
:1005C000854618B020B5FFF75DFEBDE820404FF02E
:1005D00000064FF000074FF000084FF0000B21F02D
:1005E0000701AC46ACE8C009ACE8C009ACE8C009FA
:1005F000ACE8C0098D46704710B50446AFF30080E3
:100600002046BDE81040FFF7DDBD00000048704700
:10061000082D002001491820ABBEFEE7260002008D
:10062000704700BFFEE7704710B5202000F040F88B
:1006300001282DD1142000F06EFF4FF40051154811
:1006400000F057F914480068401C13490860084638
:10065000007800F0010040B108460068401C4208E4
:100660000EA10F48FFF720FE06E00B480068420885
:100670000AA10B48FFF718FE0223094A0121322084
:1006800000F0CEFB202000F00DF8142000F043FF16
:1006900010BD00000010014004000020256400008F
:1006A000C80300200149086070470000140401409D
:1006B000014600200022074B1B6803EA0102054B9C
:1006C00014331B680B4013B10AB1012000E0002075
:1006D0007047000000040140002123498279002A6C
:1006E0003AD00A46126803689A430B461A600A1DFC
:1006F000126803689A430B1D1A60027911440A6854
:1007000003681A430A60184A0832126803689A4359
:10071000154B08331A601A1D126803689A43124B6E
:100720000C331A604279102A0ED11A1F126803681E
:100730001A430D4B08331A601A1D126803681A43D6
:10074000094B0C331A600DE00749427911440A68DD
:1007500003681A430A6005E0027911440A680368D5
:100760009A430A6070470000000401407CB50646C9
:100770000C4615460121042000F0E8FB064903C998
:10078000CDE9000100968DF804408DF805506846CB
:10079000FFF7A2FF7CBD0000F020000830B500226A
:1007A0008B071C0F0F2303FA04F20B4B8C1053F82A
:1007B00024309343084C8D1044F8253023468C1088
:1007C00053F824308C07240F00FA04F42343024C1E
:1007D0008D1044F8253030BD080001402DE9F0416E
:1007E000024600250026002000230024002791F85F
:1007F00003C00CF00F0591F803C00CF0100CBCF115
:10080000000F03D091F802C04CEA050591F800C032
:10081000BCF1000F31D0146800202BE04FF0010C28
:100820000CFA00F3B1F800C00CEA03069E4220D196
:1008300083004FF00F0C0CFA03F7BC4305FA03FCDE
:100840004CEA040491F803C0BCF1280F06D14FF024
:10085000010C0CFA00FCC2F814C00AE091F803C0C5
:10086000BCF1480F05D14FF0010C0CFA00FCC2F8A6
:1008700010C0401C0828D1D31460B1F800C0BCF1EE
:10088000FF0F34DD546800202EE000F1080C4FF01B
:10089000010808FA0CF3B1F800C00CEA03069E4206
:1008A00021D183004FF00F0C0CFA03F7BC4305FA7B
:1008B00003FC4CEA040491F803C0BCF1280F05D1F5
:1008C00000F1080C08FA0CF8C2F8148091F803C083
:1008D000BCF1480F07D100F1080C4FF0010808FAED
:1008E0000CF8C2F81080401C0828CED35460BDE834
:1008F000F081416170470161704700BFFEE770B54C
:1009000002460024002500230020958A138B1B0437
:1009100045EA030626F07F4404EA01068E4201D12F
:10092000012000E0002070BD21B1028842F00102E8
:10093000028004E002884FF6FE731A40028070477E
:1009400000B585B00121480500F0E0FA012108203A
:1009500000F0FCFA1C208DF81300C020ADF8100048
:1009600003208DF8120004A91148FFF737FF114842
:1009700000F024F84FF48060ADF80A000001ADF8F3
:100980000C000D4800904BF6FF70ADF806000020FB
:10099000ADF804003020ADF808006946054800F0C5
:1009A0005FF801210348FFF7BFFF05B000BD00005D
:1009B000000C014000540040801A060010B50446A7
:1009C0000B48844209D10121480500F0AFFA00210B
:1009D0004FF4001000F0AAFA08E00121880500F0A9
:1009E000A5FA00214FF4800000F0A0FA10BD00002D
:1009F0000054004021B1028842F48072028004E079
:100A000002884FF6FF631A400280704721B10288C6
:100A100042F40072028004E002884FF6FF531A404D
:100A2000028070470CB5024600200023019300931A
:100A300000920B0F019321F07F41019B1BB1009BA2
:100A40001433009303E0090C009B18330093009BC0
:100A50001B680B400BB1012000E000200CBD000022
:100A60002DE9F04385B004460D460026B146042723
:100A7000DFF8CC80A6884FF6C0700640684600F0CC
:100A800075FADDF808802F48B8FBF0F01FFA80F9FE
:100A900046EA0906A68020884FF6FE7108402080AD
:100AA00000262949286888420CD828684000B8FBED
:100AB000F0F087B2042F00DA04273E4309F1010069
:100AC000208427E0E8884BF6FF71884206D1286829
:100AD00000EB4000B8FBF0F087B209E0286800EBBB
:100AE000C00101EB0010B8FBF0F087B247F480477B
:100AF000C7F30B0008B947F0010747F4004006436D
:100B00004FF4967009FB00F04FF47A7190FBF1F00E
:100B1000401C2084A683208840F001002080268885
:100B20004FF6F5300640A8886989084306432680B9
:100B3000A88929890843208105B0BDE8F083000019
:100B400000127A0040420F00A086010012B141F06D
:100B5000010102E04FF6FE731940018270470182E5
:100B60007047000070B504460D4600BF4FF40031D9
:100B70001C48FFF757FF0028F8D101211948FFF75B
:100B800039FF00BF18491748FFF7B9FE0028F9D010
:100B9000002278211348FFF7D9FF00BF13491148FD
:100BA000FFF7ADFE0028F9D021460E48FFF7D7FF2A
:100BB00000BF0E49891E0B48FFF7A1FE0028F8D0A0
:100BC00029460848FFF7CBFF00BF0849891C0548A4
:100BD000FFF795FE0028F8D001210248FFF716FF25
:100BE00070BD0000005400400100030082000700B7
:100BF000F8B507460C4615461E46412F0AD1ADF8FA
:100C000000408DF802508DF8036069460F48FFF7E9
:100C1000E5FD19E0422F0AD1ADF800408DF80250F1
:100C20008DF8036069460A48FFF7D8FD0CE0432FB2
:100C30000AD1ADF800408DF802508DF80360694686
:100C40000448FFF7CBFD00BFF8BD000000080140DD
:100C5000000C01400010014000BFFEE7704700009B
:100C600070B5002100230F22C47804B3154C24680A
:100C700004F4E064C4F5E064210AC1F10403CA404D
:100C8000447804FA03F184781440214309010E4C9E
:100C90000678A155047804F01F050124AC400578BE
:100CA0006D11AD0005F1E025C5F8004109E00478BB
:100CB00004F01F050124AC40044D0678761145F878
:100CC000264070BD0CED00E000E400E080E100E0B3
:100CD00002490143024A1160704700000000FA0512
:100CE0000CED00E0F8B506460C46154606480068CF
:100CF00000908DF800608DF801408DF80250684634
:100D0000FFF7AEFFF8BD0000F820000870B50646FA
:100D1000002415E004F1B001C8B200F0EEFB0020A1
:100D200000F0EBFB102000F0E8FB002504E030466B
:100D300000F0EAFB681CC5B2802DF8DB601CC4B271
:100D4000082CE7DB70BD10B5642000F0E4FBAE209A
:100D500000F0D3FB202000F0D0FB102000F0CDFBF2
:100D6000B02000F0CAFBC82000F0C7FB002000F054
:100D7000C4FB102000F0C1FB402000F0BEFB81202E
:100D800000F0BBFBFF2000F0B8FBA12000F0B5FB9A
:100D9000A62000F0B2FBA82000F0AFFB3F2000F03F
:100DA000ACFBA42000F0A9FBD32000F0A6FB0020A0
:100DB00000F0A3FBD52000F0A0FBF02000F09DFB8D
:100DC000D92000F09AFB222000F097FBDA2000F0F7
:100DD00094FB122000F091FBDB2000F08EFB202022
:100DE00000F08BFB8D2000F088FB142000F085FBC9
:100DF000AF2000F082FB10BD70B504460D4605F132
:100E0000B001C8B200F079FB102141EA141000F0E3
:100E100074FB04F00F0141F0010000F06EFB70BDA7
:100E20002DE9F0470646894617469A464FF00008D6
:100E300000240025BAF1010F03D0BAF1020F5ED1F0
:100E400025E020E0785D203800F0FF087E2E04DDEC
:100E5000002609F1010000F0FF0949463046FFF77E
:100E6000CBFF002409E008EB4801264A02EB4101D0
:100E7000085D00F049FB601CC4B2062CF3DBB01D1A
:100E8000C6B2681CC5B2785D0028DBD137E032E01D
:100E9000785D203800F0FF08782E04DD002609F187
:100EA000010000F0FF0949463046FFF7A5FF002486
:100EB00007E004EB0811144A505C00F025FB601CAD
:100EC000C4B2082CF5DB09F10100C1B23046FFF7CE
:100ED00093FF002408E004EB081108310A4A505C33
:100EE00000F012FB601CC4B2082CF4DB06F1080011
:100EF000C6B2681CC5B2785D0028C9D100BF00BF6A
:100F0000BDE8F087FC2000082423000829B1064A28
:100F1000D2690243044BDA6104E0034AD269824396
:100F2000014BDA61704700000010024029B1064A07
:100F300012690243044B1A6104E0034A12698243B6
:100F4000014B1A61704700000010024029B1064AA7
:100F500092690243044B9A6104E0034A9269824316
:100F6000014B9A61704700000010024030B500212B
:100F70000022002400232D4D6D6805F00C0121B1E5
:100F8000042905D0082923D105E0294D056022E078
:100F9000274D05601FE0254D6D6805F47012234D47
:100FA0006D6805F48034022505EB92421CB9214D91
:100FB000554305600BE01D4D6D6805F400351DB10E
:100FC0001C4D5543056002E0194D5543056002E094
:100FD000174D056000BF00BF144D6D6805F0F001AE
:100FE0000909154D6B5C0568DD4045600F4D6D6866
:100FF00005F4E061090A104D6B5C4568DD408560D1
:101000000A4D6D6805F46051C90A0B4D6B5C45686B
:10101000DD40C560054D6D6805F44041890B074D05
:101020006B5CC568B5FBF3F5056130BD001002408F
:1010300000127A0000093D0008000020180000207E
:1010400010B504462146054800F051FA00BF802142
:10105000024800F07EF90028F9D010BD00380140A8
:1010600070B50446002503E0605DFFF7E9FF6D1CE5
:10107000605D0028F8D170BD10B500F001F810BD1A
:101080000CB50020019000903348006840F4803097
:101090003149086000BF3048006800F4003000901B
:1010A0000198401C0190009818B90198B0F5A06F04
:1010B000F1D12948006800F4003010B101200090FF
:1010C00001E0002000900098012843D123480068E7
:1010D00040F01000214908600846006820F0030035
:1010E00008600846006840F0020008601A4840683E
:1010F000194948600846406848600846406840F41E
:10110000806048600846406820F47C1048600846CB
:10111000406840F4E81048600846006840F080707D
:10112000086000BF0C48006800F000700028F9D08B
:101130000948406820F003000749486008464068B5
:1011400040F00200486000BF0348406800F00C0017
:101150000828F9D10CBD0000001002400020024018
:1011600010B500BFBF2080F31188BFF34F8FBFF3CE
:101170006F8F00BF00F036FE18B14FF08050044969
:10118000086000BF002080F3118800BF10BD000080
:1011900004ED00E010B51348006840F0010011496B
:1011A000086008464068104908400E4948600846F3
:1011B00000680E4908400B4908600846006820F4A2
:1011C000802008600846406820F4FE0048604FF424
:1011D0001F008860FFF750FF4FF00060044908606F
:1011E00010BD0000001002400000FFF8FFFFF6FEF7
:1011F00008ED00E070B540F22551274800F0B6F840
:10120000012847D1244800F06DF9C4B22348007882
:10121000B8B9402C38D122480078002834D10025B4
:1012200003E000201F4948556D1C1E48FFF7C0F819
:10123000A842F6D801201949087000201A49087000
:1012400022E01648007801280FD12E2C03D102206D
:101250001249087018E01348134909784454124899
:101260000078401C104908700EE00C4800780228F5
:101270000AD100200949087000210A480A4A127858
:10128000815401200649087040F22551024800F0BF
:1012900045F800BF70BD0000003801401D0000206F
:1012A0001C000020DC0300201E0000202DE9F0437C
:1012B00085B004460D4617461E46DDE90C890194AB
:1012C000ADF80850ADF80A70ADF80C60ADF80E80BE
:1012D000ADF8109001A9104800F098F8012240F2F2
:1012E00025510D4800F06CF84FF4A060FFF7F0FCBA
:1012F00025208DF8000001208DF803008DF80100F5
:101300008DF802006846FFF7ABFC0121024800F0AF
:1013100014F805B0BDE8F0830038014010B5002294
:10132000002340F66A14A14200D100BF0A12012432
:101330009440A3B2DC43048010BD21B1828942F401
:101340000052828104E082894DF6FF731A40828147
:10135000704702460020B1F5007F00D100BF13881E
:101360000B400BB1012000E00020704770B5024631
:10137000002400230025002040F66A16B14200D167
:1013800000BFC1F3421501F01F03012606FA03F363
:10139000012D02D19689334006E0022D02D1168A32
:1013A000334001E0968A33400C12012606FA04F419
:1013B0001688344013B10CB1012000E0002070BD4C
:1013C000F0B50346002400260025002040F66A17E9
:1013D000B94200D100BF1846C1F3421401F01F0604
:1013E000012707FA06F5012C01D10C3004E0022C8C
:1013F00001D1103000E014301AB107682F430760A4
:1014000002E00768AF430760F0BD00002DE9F04738
:1014100086B005460E460024A24600BFA14600271E
:10142000B08900B100BF2F462C8A4CF6FF700440F3
:10143000F08804432C82AC894EF6F3100440B08847
:1014400031890843718908430443AC81AC8A4FF663
:10145000FF400440B0890443AC8201A8FFF786FD39
:101460001F48874202D1DDF810A001E0DDF80CA092
:10147000A88900F4004040B10AEBCA0000EB0A1052
:1014800031684900B0FBF1F807E00AEBCA0000EB55
:101490000A1031688900B0FBF1F86420B8FBF0F065
:1014A00004012009642101FB1089A88900F400408F
:1014B00040B1322000EBC900B0FBF1F000F00700B2
:1014C000044308E0322000EB09106421B0FBF1F086
:1014D00000F00F0004432C8106B0BDE8F087000047
:1014E0000038014001468888C0F308007047C1F306
:1014F00008028280704700BFFEE710B5044621460F
:101500000020FFF72FFB10BD10B5044621464020F8
:10151000FFF728FB10BD002107E042F6E06100BFA5
:101520000A1EA1F1010399B2FAD1021EA0F1010332
:1015300098B2F2D1704700001CB5FFF701FAFFF72F
:1015400002FC01210846FFF701FD012144F20400DD
:10155000FFF7FCFC01210420FFF7F8FC0121082023
:10156000FFF7F4FC01211020FFF7F0FC1023032209
:1015700001214120FFF73CFB10230322D901422027
:10158000FFF736FB1023032259024320FFF730FBFD
:101590002823032220214120FFF72AFB18230322BE
:1015A0004FF400714120FFF723FB042303221902AB
:1015B0004120FFF71DFB00200C2103460246CDE928
:1015C000001001464FF41650FFF770FE0521002071
:1015D000FFF7E4F8102200212020FFF7C7F84FF4AE
:1015E000A060FFF775FB012211461720FFF77AFB79
:1015F00001211148FFF77FF94FF400610F48FFF711
:101600007AF90020FFF782FB02230DA20121084690
:10161000FFF706FC0CA0FFF723FD00200121034685
:101620008022CDE900100BA10D4800F0A7FB00F0CF
:101630001BFB00BFFEE7000000080140000C01405A
:10164000436F756E743A000048656C6C6F5F776F1E
:10165000726C64004F4C45445F53637265656E0065
:10166000FD1A000810B5044600F0AAFA31480068D7
:10167000401C304908603048006840B92E4804607A
:101680000846006801280DD100F01AF90AE02B483D
:10169000006838B928480068C06AE16A884201D801
:1016A0002548046026480068401C2549086000BFA2
:1016B00094F82C10012088402249096808432149E8
:1016C000086000BFE16A01EB81011F4A02EB810162
:1016D0004868A0608268E260211D82685160816074
:1016E000E16A01EB8101184A02EB81026261E16A61
:1016F00001EB8101144A52F82110491CE26A02EB05
:101700008202114B43F8221000BF00BF00F06AFABA
:101710000A48006868B108480068C06AE16A8842FF
:1017200007D24FF0805009490860BFF34F8FBFF3D5
:101730006F8F10BD78030020680300208403002011
:1017400094030020800300204004002004ED00E00A
:1017500010B516E000F034FA0C48C068C468201DCB
:1017600000F00AFA0A480068401E09490860094862
:101770000068401E0749086000F034FA204600F077
:101780000BF8044800680028E4D110BDE0040020F4
:10179000780300207403002010B50446206B00F08D
:1017A00031FA204600F02EFA10BD000030B54FF49B
:1017B0002053154800F007042CB1C01D20F007008D
:1017C000114C041B1B1B0246104C226000240F4DC1
:1017D0006C60D018083820F007000D4C2060002401
:1017E0000B4D2D686C600A4D2D682C601146441A13
:1017F0004C60074C24680C60064D4C682C60064D0C
:101800004C682C6030BD000008050020A8030020B3
:10181000B0030020B8030020B403002000BFFFF78E
:1018200097FF064800680128F9D94FF08050044915
:101830000860BFF34F8FBFF36F8FF0E740040020C5
:1018400004ED00E02DE9FF5F80460E469146DDE99C
:101850000E7A109CA9F10100216B01EB800B2BF09B
:10186000070B7EB1002507E0715D04F1340041559E
:10187000705D00B902E06D1C102DF5D300BF002192
:1018800043200155052F00D30427E762201D00F0F7
:1018900094F904F1180000F090F92461C7F10500F3
:1018A000A061646241465846039A00F015F9206031
:1018B000BAF1000F01D0CAF80040BDE8FF9F000058
:1018C00010B5002407E004EB84010F4A02EB81000D
:1018D00000F066F9641C052CF5D30C4800F060F9A3
:1018E0000B4800F05DF90B4800F05AF90A4800F087
:1018F00057F90A4800F054F90448094908600448B7
:101900000849086010BD000040040020A404002025
:10191000B8040020CC040020E0040020F4040020DF
:101920006C0300207003002010B50146164800E04B
:10193000006803688B42FBD30246436813448B4222
:1019400004D143684C682344436001460A464B680F
:1019500013440468A34211D10C4C03682468A342C9
:1019600008D04B680468646823444B6003681B68B4
:101970000B6005E0054B1B680B6001E003680B6022
:10198000884200D0016010BDA8030020B0030020F1
:1019900009480068006808B9012000E0002020B173
:1019A0004FF0FF300549086005E003480068C06853
:1019B00000680249086070476C030020980300200B
:1019C00000BFBF2080F31188BFF34F8FBFF36F8F2D
:1019D00000BF00BFFEE700002DE9F04704464FF0CE
:1019E000000900F077F93748006808B9FFF7DEFE14
:1019F000DCB114F1090F01D9012000E0002098B9F1
:101A0000083404F0070080B104F00700C0F10808B2
:101A1000C8F1FF30A04201D2012000E0002008B947
:101A2000444402E0002400E00024012000EBE470C4
:101A3000002841D0002C3FD02348006884423BD886
:101A4000224E3046056801E02E462D686868A042A7
:101A500002D228680028F7D11A48006885422BD0A6
:101A6000306800F10809286830606868001B102899
:101A700007D92F196868001B78606C603846FFF73B
:101A800053FF114968680968081A0F490860084639
:101A900000680F490968884203D20B4800680C4966
:101AA0000860686840F000406860002028600948CD
:101AB0000068401C0749086000F064FA4846BDE829
:101AC000F0870000B0030020B4030020A80300202A
:101AD000B8030020BC030020001F4FF08073036098
:101AE000001F21F001030360001F034B0360143843
:101AF0000260203870470000C11900084FF40051FF
:101B00001448FEF7F8FE23E013480068401C124911
:101B10000860084611A102681148FEF7C5FB11488C
:101B20000078012814D110A0FFF79AFA0FA11048ED
:101B3000FEF784FC18B901210E48FEF7DAFE0123F6
:101B40000B4A05211920FFF76BF9002005490870A1
:101B5000DAE70000001001400000002025640000CA
:101B6000D20300201C0000204F4B00004100000069
:101B7000DC0300200008014001460A69D1E9013078
:101B80009860D1E9010358605068884201D18868A3
:101B90005060002008611068401E10601068704797
:101BA00000F1080141604FF0FF31816000F1080150
:101BB000C16001610021016070470021016170472F
:101BC00000BFBF2080F31188BFF34F8FBFF36F8F2B
:101BD00000BF03480068401C0149086070470000CE
:101BE000C403002006480068401E054908600846F6
:101BF000006820B9002080F3118800BF00BF704743
:101C0000C403002070B506463546E6B1083D2C46B3
:101C10006068C00FB8B12068A8B9606820F00040C3
:101C2000606000F057F80849606809680844064990
:101C300008602046FFF778FE04480068401C03490E
:101C4000086000F09FF970BDB4030020C0030020BD
:101C500000204FF0E02108618861024848610720B8
:101C6000086170473F1901001CB5124800210B465E
:101C70008022CDE9001010A1114800F07FF8044641
:101C8000012C14D100BFBF2080F31188BFF34F8F08
:101C9000BFF36F8F00BF4FF0FF300A49086001208B
:101CA0000949086000200949086000F04DF808481B
:101CB00000681CBD9C03002049444C450000000006
:101CC0001D18000898030020840300207C030020D6
:101CD000A003002002480068401C014908607047CA
:101CE000A40300201348006818B1012012490860BD
:101CF0001FE000201049086000BF10480068B0FADB
:101D000080F0C0F11F0100BF01EB81020C4B03EB1F
:101D1000820042685268426000F1080243689342C0
:101D200001D1C26842604268D268064B1A6000BFA7
:101D300000BF7047A40300208C0300208003002014
:101D4000400400206803002010B50A48006840F4F1
:101D50007F00084908600846006840F07F4008603E
:101D6000FFF776FF002004490860FEF743FA0020E1
:101D700010BD000020ED00E0C40300202DE9FF4F5E
:101D800085B0804689461746DDE912ABB800FFF7FB
:101D900023FE064676B14C20FFF71EFE04462CB10A
:101DA0004C212046FEF723FB266304E03046FFF774
:101DB00029FF00E000247CB10020CDE900ABCDE993
:101DC00002403A4649464046089BFFF73BFD204605
:101DD000FFF748FC012501E04FF0FF35284609B028
:101DE000BDE8F08F2DE9F04100275B48006800282E
:101DF0007DD15A480068451C5848056095B900BF18
:101E00005748D0F800805748006855490860554841
:101E1000C0F8008054480068401C53490860FFF730
:101E2000B7FD00BF5148006885427DD300BF4C48D4
:101E30000068006808B9012000E0002020B14FF0E0
:101E4000FF304A4908606EE045480068C068C468D1
:101E50006668B54202D24548066064E000BF60692A
:101E6000D4E902128A60D4E902214A60211D426845
:101E70008A4201D1E1684160002262610168491E25
:101E8000016000BFA06AA0B100BFA06AD4E9071238
:101E90008A60D4E907214A6004F1180142688A4245
:101EA00001D1216A41600022A2620168491E0160DD
:101EB00000BF00BF94F82C10012088402C4909680D
:101EC00008432B49086000BFE16A01EB8101294A00
:101ED00002EB81014868A0608268E260211D82688F
:101EE00051608160E16A01EB8101224A00E02BE050
:101EF00002EB81026261E16A01EB81011D4A52F845
:101F00002110491CE26A02EB82021A4B43F82210AC
:101F100000BF00BF1849E06A0968C96A884286D9CB
:101F2000012784E700E000BF13480068C06A00EBA7
:101F30008000104951F82000012800D901270F48DE
:101F4000006800B1012704E00D480068401C0C49FE
:101F500008603846BDE8F081A40300207C0300201F
:101F60006C030020700300209003002098030020E1
:101F70008003002040040020680300208C03002020
:101F80008803002070B500240026FFF719FE4F4893
:101F90000068401E4D4908600846006800287DD151
:101FA0004B480068002879D063E04A48C068C4689C
:101FB00000BFA06AD4E907128A60D4E907214A6009
:101FC00004F1180142688A4201D1216A416000226D
:101FD000A2620168491E016000BF00BF6069D4E9C8
:101FE00002128A60D4E902214A60211D42688A42B5
:101FF00001D1E1684160002262610168491E01600F
:1020000000BF00BF94F82C100120884032490968B5
:1020100008433149086000BFE16A01EB81012F4AA2
:1020200002EB81014868A0608268E260211D82683D
:1020300051608160E16A01EB8101284A02EB810273
:102040006261E16A01EB8101244A52F82110491CC6
:10205000E26A02EB8202214B43F8221000BF00BF6C
:102060001F49E06A0968C96A884202D901201D49EE
:1020700008601848006808B9012000E00020002826
:1020800093D00CB1FFF784FC1748056875B100BF09
:10209000FFF7A8FE20B10120124900E011E008601E
:1020A0006D1E002DF4D100200F4908600D48006816
:1020B00038B1012630070D490860BFF34F8FBFF3D9
:1020C0006F8FFFF78FFD304670BD0000A403002026
:1020D00078030020CC04002080030020400400206E
:1020E000680300208C0300208803002004ED00E03A
:1020F00000000000000001000000000100000000DE
:1021000000000000002F000000000700070000147E
:102110007F147F1400242A7F2A120062640813238C
:1021200000364955225000000503000000001C2223
:102130004100000041221C000014083E0814000861
:10214000083E0808000000A0600000080808080811
:10215000000060600000002010080402003E5149A9
:10216000453E0000427F4000004261514946002147
:1021700041454B31001814127F1000274545453961
:10218000003C4A49493000017109050300364949BC
:10219000493600064949291E000036360000000075
:1021A00056360000000814224100001414141414C0
:1021B0000000412214080002015109060032495969
:1021C000513E007C1211127C007F49494936003E85
:1021D00041414122007F4141221C007F4949494140
:1021E000007F09090901003E4149497A007F08083A
:1021F000087F0000417F4100002040413F01007FF7
:1022000008142241007F40404040007F020C027FC2
:10221000007F0408107F003E4141413E007F0909D4
:102220000906003E4151215E007F091929460046FA
:10223000494949310001017F0101003F4040403FD1
:10224000001F2040201F003F4038403F006314081B
:1022500014630007087008070061514945430000F6
:102260007F41410000552A552A55000041417F0019
:10227000000402010204004040404040000001020E
:102280000400002054545478007F484444380038F7
:102290004444442000384444487F0038545454187F
:1022A00000087E0901020018A4A4A47C007F080491
:1022B00004780000447D4000004080847D00007F61
:1022C000102844000000417F4000007C041804787E
:1022D000007C0804047800384444443800FC24247A
:1022E00024180018242418FC007C08040408004862
:1022F0005454542000043F444020003C4040207C83
:10230000001C2040201C003C4030403C0044281071
:102310002844001CA0A0A07C004464544C44141425
:10232000141414140000000000000000000000005D
:1023300000000000000000F8000000000000003372
:102340003000000000100C06100C06000000000019
:102350000000000040C07840C0784000043F040402
:102360003F040400007088FC08300000001820FFC3
:10237000211E0000F008F000E018000000211C03FE
:102380001E211E0000F00888700000001E2123247A
:102390001927211010160E00000000000000000098
:1023A00000000000000000E0180402000000000728
:1023B0001820400000020418E0000000004020182F
:1023C00007000000404080F0804040000202010F02
:1023D00001020200000000F0000000000101011FE6
:1023E00001010100000000000000000080B070004A
:1023F00000000000000000000000000000010101DA
:102400000101010100000000000000000030300068
:102410000000000000000000806018040060180642
:102420000100000000E010080810E000000F10207C
:1024300020100F00001010F8000000000020203FC6
:102440002020000000700808088870000030282450
:1024500022213000003008888848300000182020F1
:1024600020110E000000C02010F800000007042416
:10247000243F240000F8088888080800001921205B
:1024800020110E0000E0108888180000000F1120B5
:1024900020110E0000380808C83808000000003F6E
:1024A000000000000070880808887000001C2221CD
:1024B00021221C0000E010080810E000000031227A
:1024C00022110F00000000C0C0000000000000301A
:1024D000300000000000008000000000000080606C
:1024E00000000000000080402010080000010204ED
:1024F00008102000404040404040400004040404D4
:10250000040404000008102040800000002010088F
:1025100004020100007048080808F00000000030C4
:1025200036010000C030C828E810E0000718272452
:1025300023140B000000C038E0000000203C230200
:102540000227382008F8888888700000203F202063
:1025500020110E00C0300808080838000718202095
:102560002010080008F808080810E000203F20208C
:1025700020100F0008F88888E8081000203F20206D
:102580002320180008F88888E8081000203F200061
:1025900003000000C0300808083800000718202099
:1025A000221E020008F808000008F808203F210158
:1025B00001213F20000808F8080800000020203F03
:1025C0002020000000000808F8080800C080808073
:1025D0007F00000008F888C028180800203F20016C
:1025E0002638200008F8080000000000203F2020C6
:1025F0002020300008F8F800F8F80800203F003FDD
:10260000003F200008F830C00008F808203F2000F4
:1026100007183F00E01008080810E0000F10202005
:1026200020100F0008F808080808F000203F2101DA
:1026300001010000E01008080810E0000F18242431
:1026400038504F0008F8888888887000203F2000A4
:10265000030C30200070880808083800003820215A
:1026600021221C00180808F8080818000000203F64
:102670002000000008F808000008F808001F2020CB
:1026800020201F000878880000C83808000007389C
:102690000E010000F80800F80008F800033C0700ED
:1026A000073C0300081868808068180820302C0355
:1026B000032C30200838C800C83808000000203F2C
:1026C0002000000010080808C8380800203826211B
:1026D00020201800000000FE020202000000007F1F
:1026E00040404000000C30C000000000000000012D
:1026F0000638C00000020202FE0000000040404018
:102700007F0000000000040202020400000000003C
:1027100000000000000000000000000080808080B9
:1027200080808080000202040000000000000000A1
:10273000000000000000808080800000001924223A
:1027400022223F2008F8008080000000003F112076
:1027500020110E000000008080800000000E11207B
:1027600020201100000000808088F800000E112059
:1027700020103F200000808080800000001F222267
:1027800022221300008080F0888888180020203FD3
:10279000202000000000808080808000006B9494E6
:1027A0009493600008F8008080800000203F2100A2
:1027B00000203F2000809898000000000020203F6B
:1027C00020200000000000809898000000C0808059
:1027D000807F000008F8000080808000203F2402F5
:1027E0002D302000000808F8000000000020203FE5
:1027F000202000008080808080808000203F20009A
:102800003F20003F8080008080800000203F21002A
:1028100000203F200000808080800000001F2020DA
:1028200020201F00808000808000000080FFA12009
:1028300020110E000000008080808000000E11201A
:1028400020A0FF80808080008080800020203F21A9
:10285000200001000000808080808000003324245C
:1028600024241900008080E0808000000000001F08
:10287000202000008080000000808000001F2020B9
:1028800020103F20808080000080808000010E307A
:102890000806010080800080008080800F300C03DB
:1028A0000C300F0000808000808080000020312EDE
:1028B0000E312000808080000080808080818E70BA
:1028C0001806010000808080808080000021302C6C
:1028D0002221300000000000807C02020000000085
:1028E000003F404000000000FF000000000000002A
:1028F000FF0000000002027C800000000040403F1A
:1029000000000000000601010202040400000000B3
:1029100000000000060126014A015D018801B8019E
:10292000EE010B024B029302BA0210037003DC03A8
:1029300017049704270575052006E006AF07102742
:10294000881300006429000800000020C80300006C
:1029500028010008982A0008C8030020A02F0000C2
:1029600084010008C12D0102030404400906070880
:10297000090204060815FC0404FC300910D81413DD
:10298000F0141830180B0F04040F080A090909FF86
:10299000041922091D2014220180122F0C79FEFE39
:1029A000FF01091A7E1816FBFB7B9BF7F7FFFFEF71
:1029B000EFF7D7FFBF6FFFFFDFFFBFFF0308145321
:1029C000BFBFBFFFDFDFDF9FAFBFB7BFFFEF2FF797
:1029D000FBFFFD9C5812F7C1BFFF7FFFFF7F7FEF1A
:1029E000D7AFD7F3F3F6F9B31AFCB4081510FDF816
:1029F0000CF6FEFEF5EDDFE7F7FBF6FFD9EDE91B80
:102A00006F9F421A7F3F093A011CF3F5F7011CFF43
:102A1000EFEFFC1BBFBF4D1822C77BFBFBF6F60F89
:102A2000878507111A3B3F797AFBFCF7A7A76BAFA5
:102A3000EBFA94E3F6B7C7D75777B11810BF7FF713
:102A400027F317D58FCF9A3CFEFFFEF73B0D3CDDF9
:102A5000EDEDFB895901180BFEFFFDFCFDFFFBFBB3
:102A6000FEFD99880AF4FAFBFFFDFDFFFEFE1F2F15
:102A7000FED7FFFFF0F6091809F9FFFBF9F1E2FDB7
:102A8000FF7F091D010C793F3F7F01033B3F3F0260
:082A900023041AAA0100000052
:040000050800026984
:00000001FF
